:1000000000000420752101005D2101005F21010035
:100010006121010063210100652101000000000051
:100020000000000000000000000000006721010047
:1000300069210100000000006B2101006D21010019
:100040006F2101006F21010055660100C57101009B
:100050006F2101006F2101002D7B01006F21010044
:100060006F2101006F2101006F2101006F2101004C
:100070006F2101006F2101006F2101006F2101003C
:100080006F2101006F2101006F2101006F2101002C
:100090006F2101006F2101006F2101006F2101001C
:1000A0006F2101006F2101006F2101000D3001005F
:1000B0006F2101006F21010000000000000000001E
:1000C0006F2101006F2101006F210100DD7101002E
:1000D0006F2101006F2101006F2101006F210100DC
:1000E0006F2101006F2101006F210100000000005D
:1000F000000000006F21010000000000F571010008
:1001000000000000000000000000000000000000EF
:1001100000000000000000000000000000000000DF
:1001200000000000000000000000000000000000CF
:1001300000000000000000000000000000000000BF
:1001400000000000000000000000000000000000AF
:10015000000000000000000000000000000000009F
:10016000000000000000000000000000000000008F
:10017000000000000000000000000000000000007F
:10018000000000000000000000000000000000006F
:10019000000000000000000000000000000000005F
:1001A000000000000000000000000000000000004F
:1001B000000000000000000000000000000000003F
:1001C000000000000000000000000000000000002F
:1001D000000000000000000000000000000000001F
:1001E000000000000000000000000000000000000F
:1001F00000000000000000000000000000000000FF
:020000021000EC
:10200000354936480A1A02D0072291438D46344991
:1020100034480A1A06D00722914381F30988022224
:1020200082F3148830483149314A00F044F831488D
:102030003149324A00F03FF831483249324A00F023
:102040003AF832483249334A00F035F832483349D9
:10205000334A00F030F833483349344A00F02BF863
:1020600033483449344A00F026F8344834490022D1
:1020700000F02CF833483449002200F027F83348A8
:102080003349091A082902DB002202604160314A03
:1020900090471F481F49884205D00268043003B4A6
:1020A000904703BCF7E700208646EC46002000215D
:1020B000294A9047FEE7884207D0521A05D0037894
:1020C00001300B700131013AF9D17047884202D0DA
:1020D00002700130FAE770470000042000E003209E
:1020E000000004200000042018B0010000000020BF
:1020F0004C000020D0210100D021010026A50100C4
:1021000018B00100000000200000002068A50100B8
:1021100068A5010068A5010068A5010068A5010087
:1021200068A5010068A5010068A5010018B00100BC
:1021300064B001004C0000204C0000204C00002046
:102140006C0E00206C0E0020700E0020840E00200B
:10215000842E00209D210100F52D0100FEE7FEE701
:10216000FEE7FEE7FEE7FEE7FEE7FEE7FEE7FEE747
:1021700000F002B8FFF7FCBF0F484FF0070188439B
:1021800085460E4880470E48016841F470010160A1
:10219000BFF34F8FBFF36F8FFFF732BF09480A4974
:1021A0000A4A884207D0521A05D0037801300B70D2
:1021B0000131013AF9D1704700000420395F010074
:1021C00088ED00E068A5010000000020000000206C
:1021D00082B0204B0193019B02221A61019B0222D3
:1021E0005A61019B1C4A9A61019B1C4ADA61019B5E
:1021F0004FF480621A62019B00229A62019B0022C6
:102200005A62019B0022DA62019B134A9A64019B85
:10221000134ADA64019B10221A65019B00229A6519
:10222000019B00225A65019B0022DA65019B07335E
:102230000C4A10681860019B0B4A1068186091885E
:10224000927999809A71019B20229A7100BF02B005
:10225000704700BF4C00002068A50100C4000020AA
:10226000C404002074A5010078A5010000B589B060
:1022700003900291019200230693039BDB68059370
:10228000039B1B690493049A059B9A4205D9049AFF
:10229000059BD31A013B079307E0039B9A680499B7
:1022A000059BCB1A1344013B0793039B9A68059B3C
:1022B000D31A079A934228BF13460793079A019BA4
:1022C000934228BF13460793039B5A68059B134408
:1022D000079A0299184606F0AFFF069A079B134427
:1022E0000693029A079B13440293019A079BD31A01
:1022F0000193059A079B13440593039B9B68059ADA
:102300009A4201D100230593039B059ADA60019B51
:10231000002BB5D1069B184609B05DF804FB00B54B
:1023200089B0039002910192039BDB680793039BA2
:102330009A68079BD31A0693069A019B9A420ED974
:10234000039B5A68079B1344019A0299184606F0AA
:1023500073FF079A019B1A44039BDA601AE0069BFD
:102360000593039B5A68079B1344059A02991846E4
:1023700006F062FF019A069BD31A0593039B5868E7
:10238000029A069B1344059A194606F055FF039BD3
:10239000059ADA6000BF09B05DF804FB86B00190D1
:1023A000019B1B690493019BDB680393049A039BC5
:1023B0009A4208D8019B9A68039BD21A049B134443
:1023C000013B059304E0049A039BD31A013B059358
:1023D000059B184606B0704700B589B0039002917E
:1023E0000192029B0693039B5A1C13465B00134405
:1023F000DB00204A13440593059B5B69022B29D01F
:10240000022B2ED8002B02D0012B13D029E00598E7
:10241000FFF7C4FF0490049A019B9A4202D2002362
:10242000079321E0019B0793019A06990598FFF70E
:1024300076FF19E00598FFF7B1FF0490019A049B1D
:10244000934228BF13460793079A06990598FFF70A
:1024500066FF09E0019A06990598FFF707FF0790C4
:1024600002E00023079300BF079B184609B05DF800
:1024700004FB00BF4C00002000B587B00390029120
:1024800001920D4B1B78002B01D1FFF7A1FEEFF35A
:1024900011834FF0200181F311880593019A02996D
:1024A0000398FFF799FF0490059B83F31188049B21
:1024B000184607B05DF804FB4C00002000B585B05D
:1024C00001900091009806F013FF0390039A009981
:1024D0000198FFF7D1FF0346184605B05DF804FBED
:1024E0000FB400B5A3B025AB009301A8009B249ABC
:1024F000802106F091FE2190219B802B06DD01AB0F
:10250000802219460020FFF7B7FF08E0219B002B2F
:1025100005DD219A01AB19460020FFF7ADFF219B95
:10252000184623B05DF804EB04B0704700B583B0E3
:10253000019001990020FFF7C1FF0346184603B040
:102540005DF804FB00B583B00190009101AB01225E
:1025500019460020FFF790FF019B184603B05DF875
:1025600004FB000000B585B00190019B002B0AD050
:10257000074B43F001030393019B9B010293039BD1
:102580000298984700E000BF05B05DF804FB00BF6B
:1025900080A5010000B583B001900198FFF7E2FF2C
:1025A00000BF03B05DF804FB00B585B00190019B4E
:1025B000002B0AD0074B43F001030393019B9B01BF
:1025C0000293039B0298984700E000BF05B05DF8B6
:1025D00004FB00BFF0A5010000B583B00190019B92
:1025E000002B0AD04FF47A70FFF7DEFF019B013B0E
:1025F0000193019B002BF5D100E000BF03B05DF813
:1026000004FB82B00190019B0722C3F8002500BFA4
:1026100002B0704782B00190019B0022C3F80025F0
:1026200000BF02B0704700B583B00190019B043336
:10263000184604F0F7FB00BF03B05DF804FB00B5DB
:102640008FB003900291009313468DF8073000235A
:102650000D93029B09939DF807300A93009B0B93FF
:102660009DF840300C93039B043309A900221846BF
:1026700004F03AFD0D900D9B18460FB05DF804FB79
:1026800000B583B0204B4FF080421A611E4B4FF0D3
:10269000A0525A611C4B2C229A611B4B002283F8DA
:1026A0002C20194B0193194B0093019B03221A70A4
:1026B000019B01221A73019B154A5A60019B022259
:1026C0001A72009B2F221A70009B2D225A70009BB9
:1026D0002E229A70009B2C22DA70009B02221A7123
:1026E000009BFF225A71084B1B691A46009B9A6097
:1026F000009B00221A73009B00225A7300F032F8EC
:1027000000BF03B05DF804FBD4040020F0040020F7
:1027100000F0024000B585B00190019B5B68039317
:102720000398FFF76EFF0023184605B05DF804FB21
:1027300000B585B00190019B5B6803930398FFF798
:1027400069FF0023184605B05DF804FB82B00190D4
:102750000091034B01221A7000BF02B0704700BF06
:102760000405002000B583B0124B1B78012B1CD050
:10277000104B1B78022B02D10F48FFF754FF0023A8
:102780000E4A0F490C4803F00FFF0190019B002BEC
:1027900004D00C4A8621019802F091FB054B0122DE
:1027A0001A700220FFF718FF00E000BF03B05DF8C9
:1027B00004FB00BF05050020D40400204D270100C4
:1027C000F004002088A5010000B583B0124B1B78EF
:1027D000022B1CD0104B1B78012B02D10F48FFF7A6
:1027E00022FF00230E4A0F490C4803F0DDFE019042
:1027F000019B002B04D00C4AA321019802F05FFB3F
:10280000054B02221A700220FFF7E6FE00E000BF2F
:1028100003B05DF804FB00BF05050020D4040020D0
:102820004D270100F004002088A5010000B589B003
:10283000049103930346ADF816301346ADF81430F7
:10284000BDF81620BDF81430134401330793079BDD
:10285000C82B01D904234FE000BF294B93F82C303B
:10286000002BFAD1264B93F82C30112B01D11123D8
:1028700042E0234B112283F82C202148FFF74AFF26
:10288000204B0693BDF816301A460499069806F0B8
:10289000D3FCBDF81630069A13440693BDF81430E5
:1028A0001A460399069806F0C7FCBDF81430069A3C
:1028B000134406939DF82820069B1A70124B0022A1
:1028C0001A70079BDAB2079BDBB200930F4B0D49DE
:1028D0000B48FFF7B4FE00BF0B4B1B78DBB283F055
:1028E0000103DBB2002BF7D10548FFF721FF044BB2
:1028F000002283F82C200023184609B05DF804FB61
:10290000D40400200805002004050020D005002084
:1029100000B589B0049103930346ADF81630134611
:10292000ADF81430BDF81620BDF8143013440793E9
:10293000079BC82B01D9042346E000BF244B93F822
:102940002C30002BFAD1224B93F82C30112B01D1D3
:10295000112339E01E4B112283F82C201C48FFF76D
:10296000D9FE1C4B0693BDF816301A4604990698FA
:1029700006F062FCBDF81630069A13440693BDF8C3
:1029800014301A460399069806F056FC124B0022A2
:102990001A70079BDAB2079BDBB200930F4B0D490D
:1029A0000B48FFF74CFE00BF0B4B1B78DBB283F0EC
:1029B0000103DBB2002BF7D10548FFF7B9FE044B4A
:1029C000002283F82C200023184609B05DF804FB90
:1029D000D40400200805002004050020D0050020B4
:1029E00000B589B0049103930346ADF81630134641
:1029F000ADF81430BDF81620BDF814301344079319
:102A0000079BC82B01D9042358E000BF2D4B93F836
:102A10002C30002BFAD12B4B93F82C30112B01D1F9
:102A200011234BE0274B112283F82C202548FFF778
:102A300071FE254B0693BDF816301A460499069888
:102A400006F0FAFBBDF81630069A13440693BDF85B
:102A500014301A460021069806F017FCBDF816201F
:102A6000BDF8143013440793184B00221A70079BCB
:102A7000DAB2079BDBB20093154B13491148FFF7FD
:102A8000DEFD00BF114B1B78DBB283F00103DBB22C
:102A9000002BF7D1BDF816300D4A13440693BDF84C
:102AA00014301A460699039806F0C6FB0548FFF74E
:102AB0003FFE044B002283F82C200023184609B067
:102AC0005DF804FBD4040020080500200405002064
:102AD000D005002000B585B00190019B002B0AD0E5
:102AE000074B43F001030393019B9B010293039B5C
:102AF0000298984700E000BF05B05DF804FB00BFF6
:102B000060A6010082B00190019B1B681F2B02D8B8
:102B10004FF0A04306E0019B1B6803F01F02019BDE
:102B20001A60024B184602B0704700BF0003005005
:102B300000B585B00190084611461A4603468DF847
:102B400003300B468DF8023013468DF8013001AB8F
:102B50001846FFF7D7FF03909DF803209DF8023039
:102B60005B001A439DF801309B001A439DF8183012
:102B70001B0242EA03019DF81C301B04019A194311
:102B8000039B02F5E07243F8221000BF05B05DF828
:102B900004FB00B585B0039000230193002300934C
:102BA0000023012201210398FFF7C2FF00BF05B0F7
:102BB0005DF804FB00B585B003900B468DF80B3033
:102BC0009DF80B3000220192002200920022002189
:102BD0000398FFF7ADFF00BF05B05DF804FB00B53B
:102BE00085B0019001AB1846FFF78CFF0390019B65
:102BF000012202FA03F31946039800F021F800BFFE
:102C000005B05DF804FB00B585B0019001AB184636
:102C1000FFF778FF0390039800F00AF80246019B43
:102C200022FA03F303F00103184605B05DF804FB34
:102C300082B00190019BD3F81035184602B070475E
:102C400082B001900091019B009AC3F80C2500BF4F
:102C500002B0704700B583B00190019B002B0AD0F1
:102C60004FF47A70FFF736FF019B013B0193019B04
:102C7000002BF5D100E000BF03B05DF804FB00B508
:102C800083B001900198FFF7E5FF00BF03B05DF846
:102C900004FB00B583B001900B468DF8033000F0C3
:102CA00055F800BF03B05DF804FB000000B585B027
:102CB00004F006FE0390039B0293029B002B04D0BA
:102CC000154A5121029802F0FAF8144A6B4612682C
:102CD000114619800233120C1A7001238DF801304D
:102CE0006B460F4A19462A2004F03CFE0390039BD2
:102CF0000193019B002B04D0074A5721019802F051
:102D0000DEF800212A2004F09DFE2B20FFF741FF72
:102D100000BF05B05DF804FBF8A501005CA601004A
:102D2000932C010008B52820FFF733FF2820FFF778
:102D300056FF0220FFF78EFF00212820FFF73AFF01
:102D40000220FFF787FF00BF08BD000008B506E0BE
:102D5000074B1B68002B02D0054B1B68984700F0FF
:102D600009F80346002BF3D100BF00BF08BD00BF28
:102D70009806002008B52A20FFF745FF03461846AD
:102D800008BD000000B585B00190019B002B0AD062
:102D9000074B43F001030393019B9B010293039BA9
:102DA0000298984700E000BF05B05DF804FB00BF43
:102DB00070A6010000B583B00190019B002B0AD0E2
:102DC0004FF47A70FFF7DEFF019B013B0193019BFB
:102DD000002BF5D100E000BF03B05DF804FB00B5A7
:102DE00083B001900198FFF7A1FB00BF03B05DF82D
:102DF00004FB000008B502F01DF8032003F090FB6F
:102E0000FFF73EFCFFF752FF0220FFF7D3FF024B14
:102E10001B689847FEE700BF5808002082B00346B1
:102E20008DF807309DF8073003F01F0205499DF922
:102E300007305B09012000FA02F241F8232000BFAD
:102E400002B0704700E100E082B00190019B013BBD
:102E50000C2B37D801A252F823F000BF952E0100A9
:102E6000AD2E0100BF2E0100912E01009D2E01000C
:102E7000B32E0100992E0100C52E0100A12E0100E4
:102E8000B92E0100C52E0100C52E0100A72E01009C
:102E9000202319E0402317E0482315E0802313E0A6
:102EA0004FF4807310E04FF400730DE04FF4806333
:102EB0000AE04FF4C06307E04FF4006304E04FF40E
:102EC000805301E04FF48073184602B0704700BF92
:102ED00082B00190019B022B0DD0019B022B0CDCD8
:102EE000019B002B03D0019B012B02D005E008239E
:102EF00004E0102302E0202300E00423184602B07F
:102F00007047000000B58DB0039002910192039BC1
:102F10005B781846FFF798FF0B90039B5B7B0233AF
:102F2000082202FA03F30A93039B9B781846FFF7E3
:102F3000CFFF099008230893204B0793B6230693ED
:102F4000039B1B7B002B02D0039B9B7B012B0B9BCA
:102F50009AB2089B9BB213449AB2099B9BB2D31AB4
:102F60009BB201339AB2039B5A810B9A089B13447C
:102F700007EE903AB8EEE77ADDED077A27EE277A8A
:102F8000069B07EE903AF8EEE77A77EE277AB3EEF3
:102F90000A7A77EE877AFDEEE77A17EE903A059394
:102FA000029B4FF47A721A60059B03F16402019B45
:102FB0001A6000BF0DB05DF804FB00BF3A3E823FCF
:102FC00008B5114B01225A600F4B0122DA600E4BFB
:102FD0000022C3F804250C4B0322C3F808250A4B32
:102FE0000322C3F81025084B4FF0FF32C3F8042327
:102FF000054B0122C3F800221B20FFF70FFF024BF5
:1030000001221A6000BF08BD00B0014008B50A4B9C
:10301000D3F84031012B0CD1074B0022C3F84021DB
:10302000054B01225A60044B0122DA600348FFF786
:1030300057FA00BF08BD00BF00B0014080A60100E4
:1030400000B583B02A4BD3F810350193019805F0F1
:1030500085FA02460B4643EC112B9FED210B05F040
:10306000F3FD53EC102B4FF00000224905F09AF8C5
:1030700002460B464FF000001F4905F093F8024648
:103080000B461046194605F0C5FA03460093009812
:1030900005F0A6FA02460B4601991848FFF720FAF8
:1030A000009805F09DFA4FF00002154B04F0DEFF8A
:1030B00002460B46104619460BA3D3E9002305F040
:1030C00071F802460B460F48FFF70AFA009B07EE1D
:1030D000903AB0EE670A03B05DF804FBAFF30080EE
:1030E00000000000000000400000000080842E412D
:1030F00000B00140000030400000F03F88A6010011
:103100000000F041ACA6010000B587B001908DED44
:10311000000A114B01225A640F4BD3F84435059332
:10312000059A019BD31A0493049B07EE903AB8EEDC
:10313000677ADDED007A67EE277A17EE900A05F0E0
:10314000CBF902460B46CDE90223DDE90223104606
:10315000194607B05DF804FB00B0014000B58BB024
:10316000059003930B46ADF812301346ADF81030BE
:103170000023ADF82630BDF81220059B13441B0C2C
:103180009BB203F01F03ADF82430059B9AB2BDF843
:10319000123013449BB203F07F03ADF82230BDF828
:1031A00024301F2B04D9D32289498A4804F036FEE3
:1031B000BDF822307F2B04D9D4228549864804F0FB
:1031C0002DFEBDF81030B3F5445F04D3D5228049FD
:1031D000824804F023FEBDF83030B3F5004F1AD01A
:1031E000BDF83030002B16D0BDF8303048F2010267
:1031F000934210D0BDF8303048F2020293420AD018
:10320000BDF8303048F20302934204D0D622704910
:10321000734804F003FEBDF824305B021AB2BDF817
:1032200022309B001BB213431BB2ADF82030BDF817
:103230003020BDF8203013439BB21B0A9BB2DBB297
:103240008DF81830BDF820305AB2BDF830305BB27E
:1032500003F003035BB213435BB2DBB28DF81930AA
:10326000BDF81030002B16D1BDF83030B3F5004F4B
:1032700004D0E82256495B4804F0D0FD059BDBB240
:103280005B00DBB263F07E03DBB28DF81830012304
:10329000ADF826301EE0BDF82230002B10D1BDF86D
:1032A0003030B3F5004F03D0BDF83030002B07D1DC
:1032B0009DF818308DF818300123ADF8263009E05C
:1032C0009DF8183043F04003DBB28DF8183002232C
:1032D000ADF82630BDF83030002B37D0002B71DB35
:1032E000A3F50043032B6DD800238DF81F303E4B10
:1032F0001B681B7D002B20D0BDF8261006AB0022DA
:10330000184600F0DBF903468DF81F30BDF8103089
:103310009DF81F201946039800F0D0F903468DF858
:103320001F30BDF8102006A9BDF826009DF81F30FB
:103330000093039BFFF77AFA46E0BDF8102006A938
:10334000BDF82600039BFFF7E3FA3DE0BDF810202F
:1033500006A9BDF82600039BFFF742FB224B1B6822
:103360001B7D022B2FD1059B182B2CD0BDF82610CE
:1033700006AB0022184600F0A1F903468DF81E3076
:10338000BDF810309DF81E201946039800F096F9FC
:1033900003468DF81E300021182000F09AF80346ED
:1033A0008DF81D309DF81E209DF81D309A420AD0E0
:1033B0000D4B1B685B6A002B05D00B4B1B685B6ACF
:1033C000984700E0FEE700BF00BF0BB05DF804FBCC
:1033D000F8A6010048A701005CA7010070A7010042
:1033E00080A7010018A801000000002000B587B0E8
:1033F000059003930B46ADF812301346ADF810302C
:10340000BDF81020BDF812104FF400430093039B49
:103410000598FFF7A3FE00BF07B05DF804FB00B5F9
:1034200087B0059003930B46ADF812301346ADF804
:103430001030BDF81020BDF8121000230093039B3C
:103440000598FFF78BFE00BF07B05DF804FB00B5E1
:1034500087B001900091002304930198009B99B2DA
:1034600003AB0422FFF7DBFF032305930AE0049B71
:103470001B0203A9059A0A44127813440493059B7E
:10348000013B0593059B002BF1DA049B184607B01E
:103490005DF804FB00B585B0019000910023ADF804
:1034A0000E300198009B99B203AB0222FFF7B7FFE1
:1034B0009DF80D309BB21B029AB29DF80C309BB266
:1034C0001344ADF80E30BDF80E30184605B05DF867
:1034D00004FB00B585B0019000910198009B99B262
:1034E0000DF10F030122FFF79AFF9DF80F301846E8
:1034F00005B05DF804FB00B587B00390029101921E
:10350000002305930CE0019BD9B204AA059B134448
:103510000A461A70019B1B0A0193059B0133059310
:10352000059B032BEFDD0398029B99B204AB0422A9
:10353000FFF75CFF00BF07B05DF804FB00B587B084
:10354000039002911346ADF80630BDF80630DBB2A9
:103550008DF81430BDF806301B0A9BB2DBB28DF833
:1035600015300398029B99B205AB0222FFF73EFF8C
:1035700000BF07B05DF804FB00B585B00390029171
:1035800013468DF807300398029B99B20DF107039B
:103590000122FFF72BFF00BF05B05DF804FB00B56B
:1035A00089B00590049103920293039BDBB28DF8DE
:1035B0001830039B1B0ADBB28DF81930039B1B0CE0
:1035C000DBB28DF81A30039B1B0EDBB28DF81B307B
:1035D000029BDBB28DF81C30029B1B0ADBB28DF81C
:1035E0001D30029B1B0CDBB28DF81E30029B1B0EA4
:1035F000DBB28DF81F300598049B99B206AB48F2F8
:10360000030200920822FFF7A9FD00BF09B05DF890
:1036100004FB00B589B00590049111461A460B468B
:10362000ADF80E301346ADF80C30BDF80E30DBB2FD
:103630008DF81C30BDF80E301B0A9BB2DBB28DF842
:103640001D30BDF80C30DBB28DF81E30BDF80C30EB
:103650001B0A9BB2DBB28DF81F300598049B99B210
:1036600007AB48F2020200920422FFF777FD00BF89
:1036700009B05DF804FB00B589B0059004911146CE
:103680001A460B468DF80F3013468DF80E309DF814
:103690000F308DF81C309DF80E308DF81D300598D8
:1036A000049B99B207AB48F2010200920222FFF795
:1036B00055FD00BF09B05DF804FB000086B0039023
:1036C000029113468DF807300023059311E0059B06
:1036D000039A13441A789DF8073053408DF813303D
:1036E0009DF81330074AD35C8DF80730059B0133F2
:1036F0000593059A029B9A42E9DB9DF8073018462C
:1037000006B07047DC06002008B54FF4C0734FF6D2
:10371000FF7200210748FFF77CFF074B1B681B7AED
:103720009BB24FF6E07200210448FFF772FF00BF22
:1037300008BD00BF08000B00000000201F001100A2
:1037400000B583B003468DF807309DF90730052B8F
:1037500007D140236FF4005200210A48FFF71FFFF2
:103760000BE09DF90730092B07D14FF401536FF49B
:10377000005200210348FFF712FF00BF03B05DF8BD
:1037800004FB00BF08000B0010B584B001906A4B29
:103790001B680022DA73684B1B6802221A82664B90
:1037A0001B6800221A75644B1B6800225A75624B15
:1037B0001B6800229A72604B1B680022DA725E4B13
:1037C0001B6800229A625C4B1B680022DA625A4B2B
:1037D0001B6800221A63584B1B6800225A63564B21
:1037E0001B680022DA63544B1B6800229A6300F0C6
:1037F00081FE0346002B02D04FF0FF3399E00420F6
:1038000000F050FE0390052000F04CFE02900A20CC
:1038100000F048FE03461B0CDAB2474B1B6802F06F
:103820001F02D2B21A72039B002B09D0029B002BFD
:1038300006D0414B1B681B7A002B01D0FFF764FFB9
:10384000202000F02FFE03463C4A934204D13A4B1D
:103850001B6801225A7203E0374B1B6800225A7220
:10386000019B03F01003002B06D0334B1C6806208D
:1038700000F018FE03462360019B03F02003002B99
:1038800006D02D4B1C68072000F00CFE0346636039
:10389000019B03F04003002B07D0082000F002FE3C
:1038A0000246254B1B68D2B29A72019B03F080033B
:1038B000002B07D0092000F0F5FD02461E4B1B68C7
:1038C000D2B2DA721C4B1B68DB7A002B03D11A4B85
:1038D0001B688522DA72184B1B689B7A002B03D178
:1038E000154B1B6874229A721F2000F0DBFD024604
:1038F000114B1B68D2B25A731E2000F0D3FD034651
:10390000DAB20D4B1B6802F07F02D2B29A730A4BF7
:103910001B689B7B002B03D1074B1B682E229A73DD
:10392000054B1B689B7B1A4600210548FFF724FEC8
:103930000023184604B010BD000000204002001013
:103940001400090000B583B00190019B012B09D13F
:10395000052000F073FE0123FF2201211B48FFF721
:103960008AFE2EE0019B022B17D10323FF220021A8
:103970001748FFF780FE4FF400036FF480720021B8
:103980001248FFF70CFE00237F2202210F48FFF7A9
:1039900072FE052000F052FE13E00123FF220021F9
:1039A0000B48FFF768FE4FF400036FF480720021AC
:1039B0000648FFF7F4FD00237F2202210348FFF7AA
:1039C0005AFE00BF03B05DF804FB00BF0800110001
:1039D0000400110000B585B0019000214FF4A02033
:1039E000FFF735FD0390039A134B13400393019B9C
:1039F00003F00103002B03D0039B43F480230393C4
:103A0000019B03F00203002B03D0039B43F41043FC
:103A10000393019B03F00403002B03D0039B43F0AB
:103A200012030393039A00214FF4A020FFF763FDD4
:103A300000BF05B05DF804FBC00FE0FF08B5002132
:103A40000020FFF704FD0346184608BD00B585B009
:103A50000190019B1B89002B07D1019B1B781A4603
:103A600000211348FFF788FD16E005238DF80F307D
:103A700000211048FFF72DFD034603F00103002B42
:103A800002D009238DF80F30019B1B899DF80F2070
:103A90001146184600F094FF019B5B681A4600210E
:103AA0000548FFF728FD00BF05B05DF804FB00BF27
:103AB0001C000700140001000C00010084B0034644
:103AC000ADF806300B468DF8053013468DF80430FE
:103AD000BDF806309DF8052002FB03F303939DF823
:103AE0000430032B07D1039BB52202FB03F303939E
:103AF000039BDB090393039B9BB2C3F30A039BB2B3
:103B000003F58063ADF80A30039BDB0A0393BDF82D
:103B10000A30B3F5006F02D3039B01330393039B79
:103B20009BB2184604B0704700B58BB001900023DB
:103B30000393019B052B0ED1264B0993264B08932B
:103B4000264B0793264B0693264B0593264B04934F
:103B5000264B03930DE0264B0993264B0893264BE7
:103B60000793264B0693264B0593264B0493254B30
:103B70000393099A00212448FFF7BDFC089A00210D
:103B80002248FFF7B8FC079A00212148FFF7B3FC51
:103B9000069A00211F48FFF7AEFC059A00211E4837
:103BA000FFF7A9FC049A00211C48FFF7A4FC039A24
:103BB00000211B48FFF79FFC1A4A00211A48FFF713
:103BC0009AFC1A4A00211A48FFF795FC00BF0BB077
:103BD0005DF804FBFDC001003EC40100BEC601004B
:103BE0007EC7010036CF0100B5CF0100F5CF01003F
:103BF000FEA8020036AC0200FEA502003EAF0200A5
:103C00007DAF0200B5AF0200380003003C000300A6
:103C10004000030044000300480003004C00030080
:103C200050000300400200101C00030089A46D1B1B
:103C30002000030000B58BB00190019B1B788DF82C
:103C40001930019B1B79182B03D8019BDB78182BAB
:103C500001D9012300E000238DF81830019BDB79A6
:103C6000012B01D1102300E000238DF81730002331
:103C70000493019B5B78013B062B1DD801A252F8EF
:103C800023F000BFA73C0100B93C0100B93C010092
:103C9000A13C0100B33C0100B93C0100AD3C010076
:103CA000202307930CE04023079309E04823079360
:103CB00006E08023079303E04FF48073079300BF6F
:103CC000AB4B1B681A8AAA4B1B6822F0E00292B227
:103CD0001A82A74B1B68019AD2791A73019B5B7BEE
:103CE0000233012202FA03F3ADF80E30BDF80E30B4
:103CF000DB0007EE903AF8EE677A9FED9E7A67EE6A
:103D0000877A9B4B1B68FDEEE77A17EE902A12B27A
:103D10005A82974B1B68019A127B5A75019B9B7BB9
:103D20001A04019B1B7B1B0303F430431A43019BC2
:103D30001B7A5B0103F020031A439DF817301343ED
:103D40008D4A00211020FFF72AFC9DF81830002B27
:103D500027D0874B1B681A8A854B1B6842F060028C
:103D600092B21A824FF440636FF4C052002183482C
:103D7000FFF715FC40F2063200218148FFF7BBFB3C
:103D8000002200214FF00E10FFF7B5FB7D4A002105
:103D90007D48FFF7B0FB7D2200217C48FFF7ECFB5C
:103DA00056E0019B1B7B002B35D0019B9B7B012B9D
:103DB00003D0019B9B7B002B0ED1019B5B7B1A46A2
:103DC000734B33F81230032210211846FFF776FEAA
:103DD0000346ADF81A300DE0019B5B7B1A466C4B35
:103DE00033F81230042210211846FFF767FE03460D
:103DF000ADF81A30BDF80E30DB00079A1344079374
:103E0000BDF81A3003F07F039BB24FF68072022197
:103E10005D48FFF7FEFB079BFF2B11DD544B1B6832
:103E20001A8A534B1B6842F0200292B21A824FF456
:103E300080636FF4C05200215048FFF7B0FB07E0E9
:103E40004FF4A0536FF4C05200214C48FFF7A7FB7A
:103E5000019B9B78FC2200214FF4C020FFF70BFC54
:103E6000BDF80E30DBB2013BDBB21A4600214FF445
:103E70000030FFF781FB019B5B78072B03D1082003
:103E800000F060FA02E0002000F05CFA019B1B7B6E
:103E900003F00303032B05D13E4A00213E48FFF700
:103EA0002AFB04E03D4A00213B48FFF724FB0021A8
:103EB0003B48FFF7CCFA0890089B23F4FF5323F00C
:103EC0001F0308939DF81930092B03D1089B43F079
:103ED00001030893019B1B791B0203F4F853089A12
:103EE00013430893019BDB78DB00DBB2089A134392
:103EF0000893019B5B795B0003F00603089A134368
:103F00000893089A00212648FFF7F5FA019B9B7950
:103F10009A02019B5B781B0313436FF474420021E8
:103F20002420FFF73CFB019B5B89002B02D1019B06
:103F300081225A81019B5B891A4602214FF4C020DD
:103F4000FFF7FCFA9DF81930092B33D1154A0021EF
:103F50001548FFF7D0FA40F63C7200214FF41020CC
:103F6000FFF7ECFA114A00211148FFF7C4FA2DE0DF
:103F7000000000206666663FCF4FFCFF08000B0084
:103F80000C000E000A5A0C0012000E0016000E0063
:103F9000E8A60100CC355FAF0C0006004C585FAFBF
:103FA000140001003400011C1C00070033A8B508F0
:103FB000100007003C4A00213C48FFF79CFA41F6FC
:103FC0003C7200214FF41020FFF7B8FA14220121AF
:103FD0003748FFF7D1FA0E2202213648FFF7CCFA14
:103FE000812200213448FFF7C7FA02220021442031
:103FF000FFF7C2FA0120FFF7A5FC01238DF8263058
:1040000000238DF8273014E01420FEF7C3FA0021B6
:104010004420FFF75EFA034603F00203002B03D0AF
:1040200000238DF8263008E09DF8273001338DF805
:1040300027309DF82730052BE6D99DF82630002B38
:1040400002D04FF0FF332BE0019B1B79082B1CD9CA
:10405000019B1B79182B18D8184B1B685B7A012B16
:1040600005D19DF919301846FFF76AFB04E09DF869
:1040700019301846FFF758FD4FF4C84348F2FF12B5
:1040800000210F48FFF7C5FA05E00023FE220021BA
:104090000B48FFF7F0FA012000F014F80490049B9D
:1040A00018460BB05DF804FB3411071C1C00070018
:1040B0005000070018000700080009000000002059
:1040C0001800030000B585B00190019B012B0ED1B3
:1040D00000211048FFF7DEF90346ADF80E3040F23C
:1040E00005134FF6FF7200210A48FFF792FA00F01D
:1040F00013F80290019B012B06D1BDF80E2000237E
:1041000000210448FFF785FA029B184605B05DF8C8
:1041100004FB00BF4800070000B585B000230393EF
:1041200000230193304B0093009A00212F48FFF7A2
:10413000E2F91023FF2200212C48FFF79CFA01230B
:104140008DF80A3000238DF80B3012E01420FEF7B2
:1041500021FA00212648FFF7BCF90346012B03D1C1
:1041600000238DF80A3008E09DF80B3001338DF8FC
:104170000B309DF80B30022BE8D99DF80A30002B4C
:1041800002D04FF0FF330393002200211748FFF7BE
:10419000F3F9012200211648FFF7EEF90123FF226F
:1041A00002211248FFF767FA00211248FFF74FF982
:1041B0000190019B6FF06042934202D14FF0FF33B8
:1041C000039300210C48FFF742F90190019B6FF027
:1041D0006042934202D14FF0FF330393039B184692
:1041E00005B05DF804FB00BF010002000C000400F4
:1041F00020000400140004001C00040000B583B07B
:104200000346ADF80630BDF806301A4600214FF4DB
:104210006020FFF793F900BF03B05DF804FB0000D6
:1042200000B583B00346ADF80630BDF806301A4637
:1042300000210348FFF782F900BF03B05DF804FBDB
:104240000400010000B583B003460091ADF80630CC
:104250001346ADF80430BDF80420BDF80630134411
:10426000B3F5806F23DABDF804307F2B09D8BDF891
:104270000620BDF80410009B4FF4A010FFF7B6F81D
:1042800013E0142200210D48FFF735F9BDF8043082
:104290001A4600210A48FFF72EF9BDF80620009BB8
:1042A00000214FF4E810FFF7A1F8002301E04FF0E0
:1042B000FF33184603B05DF804FB00BF04001F0085
:1042C00008001F0000B585B00346ADF806300B4668
:1042D000ADF8043013468DF80330BDF804307F2B61
:1042E00011D8BDF80620BDF804301B041A439DF810
:1042F0000330DB0213430393039B114A0021242064
:10430000FFF74DF918E0BDF80620BDF80430803302
:104310001B041A439DF80330DB0213430393039BF2
:10432000074A00212420FFF73AF900214FF400202A
:10433000FFF7CFF80346039300BF05B05DF804FB19
:1043400000F400FC00B583B003468DF807309DF8FB
:1043500007301A4601212820FFF70EF900BF03B0ED
:104360005DF804FB00B585B001900B46ADF8023056
:104370001346ADF800301D4B1B68DB7B032B03D1CC
:104380004FF49813039302E04FF490130393BDF896
:104390000020BDF802301344B3F5806F22DABDF877
:1043A00000307F2B08D8BDF80220BDF80010019B1B
:1043B0000398FFF734F815E0039B1B0C1A46002105
:1043C0000B48FFF798F8BDF800301A46002109485D
:1043D000FFF791F8BDF80220019B00214FF4E8108F
:1043E000FFF71DF800BF05B05DF804FB00000020DA
:1043F00004001F0008001F0000B583B00023ADF8C3
:1044000006301D4B1B68DB7B012B0CD0032B14D11A
:104410000C214FF4F010FFF73DF80346C3F30C03F3
:10442000ADF8063013E000211448FFF733F80346D7
:10443000C3F30C03ADF8063009E000211048FFF784
:1044400029F80346C3F30C03ADF8063000BFBDF8EE
:10445000063003F48053002B07D0BDF806306FEA16
:10446000C3436FEAD343ADF80630BDF906301846B2
:1044700003B05DF804FB00BF000000200C00180032
:1044800020000C0008B500217420FEF7E0FF034671
:10449000184608BD08B500216420FEF7D8FF034682
:1044A000184608BD00B585B00346ADF806300023B8
:1044B0000393012200210C48FFF740F8BDF80630B5
:1044C0001A4600210948FFF739F802220021064860
:1044D000FFF734F800210648FEF7B9FF0390039B6D
:1044E000184605B05DF804FB08000B0004000B0043
:1044F00010000B0000B583B0FFF7A0FA0190019BFC
:10450000074A934206D0019B064A934202D04FF0DD
:10451000FF3300E00023184603B05DF804FB00BF42
:104520001203CADE0203CADE00B585B00190002185
:104530000B48FEF78CFF0390039B1B0D1B05039399
:10454000019BC3F31303039A13430393039A0021BC
:104550000348FEF7D0FF00BF05B05DF804FB00BFC5
:104560000800010000B583B002214420FEF792FF4D
:1045700003461B040193019B03F08073002B14BFBF
:1045800001230023DBB2184603B05DF804FB0000F2
:1045900000B585B003468DF807309DF8073003F06D
:1045A0000103002B32D04FF410736FF47C620021B2
:1045B0004FF4A020FEF7F3FF4FF404034FF0FF3257
:1045C00000211C48FEF7EBFF4FF4887303939DF81E
:1045D000073003F00203002B03D0039B43F4702346
:1045E0000393039A00211448FEF785FF9DF80730D6
:1045F00003F00203002B18D0039B23F470230393D2
:10460000039A00210C48FEF776FF0EE000236FF4BA
:104610007C6200214FF4A020FEF7C1FF00234FF67B
:10462000FF6200210448FEF7F4FF00BF05B05DF80B
:1046300004FB00BF040011001600110000B585B096
:104640000190019B012B16D14FF4C053ADF80E30F1
:10465000BDF80E3043F00203ADF80E30BDF80E3059
:1046600043F02003ADF80E30BDF80E301A4600219D
:104670000748FEF763FF019B052B05D14FF400723D
:1046800000210348FEF75AFF00BF05B05DF804FBA8
:104690000400110000B587B003468DF807300023F1
:1046A00005930023ADF812309DF8073003F00103A5
:1046B000002B12D19DF8073003F00403002B0CD11E
:1046C0009DF8073003F00803002B06D19DF8073052
:1046D00003F01003002B00F08E809DF8073003F0EC
:1046E0000103002B13D09DF8073003F00203002BC9
:1046F00006D00023002200210D20FEF777FE4DE0BA
:104700000023002200210320FEF770FE46E09DF802
:10471000073003F00803002B13D09DF8073003F097
:104720000203002B06D00023002200210F20FEF7F9
:104730005DFE33E00023002200210720FEF756FE35
:104740002CE09DF8073003F01003002B13D09DF8E8
:10475000073003F00203002B06D0002300220021C3
:104760000E20FEF743FE19E0002300220021052061
:10477000FEF73CFE12E09DF8073003F00203002B29
:1047800006D00023002200211020FEF72FFE05E0B6
:104790000023002200210920FEF728FE03214420E7
:1047A000FEF797FE0346ADF81230BDF8123003F065
:1047B0000803002B15D100212848FEF748FE03907E
:1047C000039BB3F5502F09D10023002200210020C4
:1047D000FEF70CFE4FF0FF33059339E000230593FD
:1047E00036E00023002200210020FEF7FFFD4FF0FD
:1047F000FF3305932CE09DF8073003F02003002BD6
:1048000013D09DF8073003F00203002B06D00023DD
:10481000002200211120FEF7E9FD19E0002300220B
:1048200000210B20FEF7E2FD12E09DF8073003F0B7
:104830000203002B06D00023002200210C20FEF7EB
:10484000D5FD05E00023002200210120FEF7CEFD6A
:10485000059B184607B05DF804FB00BF30000F0051
:1048600000B583B00190019B002B0DD0019A00216F
:104870003420FEF740FE4FF400734FF6FF72002124
:104880001020FEF7C6FE06E000234FF6FF5200217F
:104890001020FEF7BEFE00BF03B05DF804FB000071
:1048A00000B583B003468DF80730002200210B4885
:1048B000FEF721FE002200214FF4E020FEF71BFE50
:1048C0009DF80730002B05D04FF0E052002104483E
:1048D000FEF711FE00BF03B05DF804FB48000700BF
:1048E0001400070000B583B001900B468DF803302B
:1048F0004FF008234FF0FF3200211648FEF74FFE1D
:104900004FF060134FF0FF3200211248FEF747FED0
:10491000019B052B08D1104B4FF0FF3200214FF4C3
:10492000E020FEF73CFE07E00C4B4FF0FF32002189
:104930004FF4E020FEF733FE9DF80330002B04D047
:10494000074A00210748FEF7D6FD00BF03B05DF817
:1049500004FB00BF48000700003C0002001C0002EE
:10496000001101011400070000B583B00190019B04
:10497000052B07D10A4B4FF0FF3200210948FEF703
:104980000EFE09E0019B092B06D1074B4FF0FF32C9
:1049900000210448FEF703FE00BF03B05DF804FBEE
:1049A000003C000204000700001C000208B50022C1
:1049B00000210248FEF79FFD00BF08BD040007006C
:1049C00000B583B003460091ADF806300120FFF733
:1049D00035FE009B00211846FFF784FF009B184618
:1049E000FFF7C2FFBDF80630C3F30B039BB21A46B4
:1049F00000211348FEF7A2FD0323FF2200211148E6
:104A0000FEF739FE00BF00210E48FEF762FD0346A7
:104A100003F00103002BF6D1FFF7C8FF0020FFF7DA
:104A20003FFF0520FFF70AFE00210748FEF751FD72
:104A3000034603F03F03DBB2184603B05DF804FB06
:104A40001C000800100008001C0007000000000007
:104A500000B597B0B848FEF7C2F9B84AB849B948A6
:104A6000FEF750FA00238DF84B30002311932B23CF
:104A70008DF84B309DF84B301A069DF84B301B04D7
:104A80001A439DF84B301B021A439DF84B301343D9
:104A90001A46119B13431193119B0493AA4B1B8934
:104AA000ADF81430A84B1B788DF80C30FDF78CFE58
:104AB000FEF738F90220FEF7E2F800BFFFF752FDDB
:104AC0000346002BFAD00020FEF75EFE0346B3F14A
:104AD000FF3F03D19D48FEF782F9FEE70320FFF771
:104AE00057FD9848FFF7A6F80346002B03D09848D7
:104AF000FEF775F9FEE79448FEF7A8FF44F20100BF
:104B0000FFF77CFB44F20100FFF78AFB8C4B1B682C
:104B10001846FFF709FD894B1B681846FFF7A0FEF2
:104B20000320FEF757FF0320FFF732FD4FF000038D
:104B3000109300230F934FF000024FF00003CDE9D4
:104B40000C23FEF73DFAFEF77BFA8DED100A814B40
:104B500001221A60002315937F4B1A787F4B9A70BD
:104B6000802200214420FEF7C6FC00227B490C2055
:104B7000FFF768FB012200210C20FFF7A3FB0220B6
:104B8000FFF788FD00BF00214420FEF760FC0346CC
:104B9000734A1360724B1A68724B1340002BF2D0A9
:104BA0006D4B1B780133DAB26B4B1A706C4B1B6880
:104BB00003F48043002B00F08E804FF480420021EC
:104BC0004420FEF798FC00214C20FEF740FC0346F1
:104BD00003F07F030B930B9B142B00F281800B9B44
:104BE0009BB2002219466048FFF7BCFB5E4B0022D7
:104BF0009A700A225D495C4804F0B0FA0346002B23
:104C00006ED1FFF73FFC0A90FFF744FC0990FFF7D5
:104C1000F3FB034607EE903AB8EEE77ADFED546A0D
:104C2000C7EE267ACDED087A02AB1946514800F05E
:104C300025F901AB1946504800F020F9099A0A9B62
:104C4000D31A0793019A029BD31A0693079B07EE88
:104C5000903AB8EEE77A069B07EE903AF8EEE76AEC
:104C6000B7EE006ADDED087A76EE677A66EEA77A2F
:104C700077EE677A17EE900A03F0B2FC4FF000026D
:104C80004FF0804303F08EFA02460B461046194659
:104C900025A3D3E9002303F0E9F902460B4637497F
:104CA000C1E90023354BD3E9000121A3D3E9002357
:104CB00003F0DCF902460B463149C1E9002315999E
:104CC0004B1C15932E4BD3E900232E48C9000144F9
:104CD000C1E9002304E02C4A00214420FEF70BFC2C
:104CE0006420FDF7CCFF9DED100A0F98FEF70CFA3B
:104CF000CDE90C01DDE90C2324498A4273F100035C
:104D0000C0F08E80159B082B62DDFEF759F91599CE
:104D10001F48FDF7E5FB1F48FDF7E2FB0023149356
:104D200046E000BFAFF30080FA48CE3B1835B13DF6
:104D30000000001319DDB14138A80100380000203F
:104D400034000020040000203C0000204CA801009A
:104D500060A8010000B00140DC0700201400002022
:104D6000F407002000D02724E007002020000020C6
:104D70000000804CEA070020EE070020F807002022
:104D8000000800200808002000902724900510004B
:104D900074A8010080A80100224A149BDB00134480
:104DA000D3E900232048FDF79BFB149B01331493A8
:104DB000149A159B9A42EFDB0A2004F009FA0023AB
:104DC00015934FF000024FF00003CDE90C23C3E62A
:104DD00015991648FDF784FB1548FDF781FB002364
:104DE00013930BE00F4A139BDB001344D3E900231A
:104DF0000D48FDF775FB139B01331393139A159B15
:104E00009A42EFDB0A2004F0E3F9002315934FF0F8
:104E100000024FF00003CDE90C23FEF7D1F89BE62A
:104E200000BF99E60808002088A8010074A80100C6
:104E300090A8010000B583B000238DF807300B4B1C
:104E40000B4A1A609DF8073001338DF807309DF842
:104E50000730012B05D040F219220649064802F01E
:104E6000DDFF00BF03B05DF804FB00BF5808002061
:104E7000514A010098A80100F4A8010084B00190F3
:104E80000091009B00221A600023039310E0009B16
:104E90001A68039B01990B441B781946039BDB009E
:104EA00001FA03F31A44009B1A60039B0133039336
:104EB000039B032BEBDD00BF00BF04B0704700B5C0
:104EC00083B002900091019244F2010071466A465B
:104ED00000F004F803B000BD00BF000030B58BB097
:104EE00007900691059272B600BF00F0CFFC00BF9C
:104EF00000F0FEFA0346002BFAD1079B44F20102B0
:104F0000934216D0079B44F2020293423ED1059B86
:104F100009932C4A2C4BD31ADB081B0443F00100E5
:104F2000099B5B681A46099B1B88284900F0A3FA75
:104F300039E0059B0893234A234BD31ADB081B0453
:104F400043F00104089B9D68089B9B68184600F08D
:104F5000BDFC03461846089B5B681946089B1B6806
:104F6000069A02920193009103462A461849204668
:104F700000F095FA134A144BD31ADB081B0443F0D4
:104F800001031449184600F057FA0CE00D4A0E4B85
:104F9000D31ADB081B0443F00103069A0E49184696
:104FA00000F058FA00BF0D4B1B6803F00103002B03
:104FB00000D000BE059A0699079800F0CFFC00BF0C
:104FC0000BB030BD58A5010028A5010000A90100C3
:104FD0001CA9010044A9010058A90100F0ED00E05E
:104FE00000B583B001900091019B1B681B6800997C
:104FF0000198984700BF03B05DF804FB00B583B08B
:105000000190019B1B685B680198984700BF03B043
:105010005DF804FB00B583B00190019B1B689B68A1
:105020000198984700BF03B05DF804FB82B001907F
:10503000019BDB6801225A7100BF02B0704782B049
:105040000190019BDB685B79184602B0704784B021
:105050000190009100238DF80F30019B1B7803F025
:105060000403DBB2002B24D0019B1B78C3F30103A4
:10507000DBB2012B02D0022B0CD017E0009B1B6887
:10508000019A1288C2F38312D2B213449A1C009B75
:105090001A600BE0009B1B68019A5288C2F38912C8
:1050A00092B213449A1C009B1A6000BF01238DF832
:1050B0000F309DF80F30184604B0704700B58BB024
:1050C0000023ADF826303B4800F00DFD3A4800F0D3
:1050D0000AFD3A4B5B680493384B9B680693049A2D
:1050E000069B134002339B00344A13440433089355
:1050F00004AB19460898FFF7AAFF0346002B09D016
:10510000049A069B134002339B002C4A1344043339
:105110000893EDE700BF0023079311E0049B5A1C9E
:105120000492069A1340079A920001A90A4423495F
:1051300002339B000B445B681360079B01330793AA
:10514000079B012BEAD99DF80430C3F30103DBB2BE
:10515000012B10D0022B1CD1BDF80A30ADF826303F
:10516000BDF80630C3F389139BB203339A08049B3E
:10517000134404930EE0BDF80A30ADF82630BDF8B4
:105180000430C3F38313DBB21A46049B1344049325
:1051900000E000BF084800F0B2FC0590059B002B22
:1051A00002D0049B054A5360BDF8263018460BB068
:1051B0005DF804FB440D0020400D00202C09002068
:1051C00000B585B00021074800F016FC0390039B52
:1051D0000293029B83F310030193019B184605B0D1
:1051E0005DF804FB480D002000B589B003900291E2
:1051F00001920093039B1B0C0693FFF7E1FF0790BE
:10520000079B1904009B5A1C0A9B1340069A0A43E9
:105210001B4902339B000B445A60009A0A9B1340BF
:1052200002339B00164A134404330593039B03F097
:105230000703D9B2059A137861F3C5031370019B74
:1052400003F00F03D9B2059A138861F38913138011
:10525000029BC3F31501059A136861F39F23136042
:10526000059A1378012161F301031370059A1378ED
:105270006FF38203137000BF09B05DF804FB00BF39
:105280002C09002000B58BB00390029113468DF8D5
:105290000730039B0233089301238DF81F30002051
:1052A00000F056FC3E4B1A68029B1A603C4B9A6811
:1052B0003B4B59683A4B1B68CB1A13440133099393
:1052C00014E00121374800F0DEFBFFF7F7FE059000
:1052D0000599344800F0D7FB314B9A68304B596838
:1052E0002F4B1B68CB1A134401330993089A099B6F
:1052F0009A42E6D89DF81F30002B48D00023049333
:105300009DF80730002B17D09DF81030012262F372
:1053100001038DF810309DF8103043F004038DF830
:105320001030039B03F00F03DAB2BDF8103062F3C4
:105330008913ADF8103016E09DF81030022262F3A8
:1053400001038DF810309DF8103043F004038DF800
:105350001030039BC3F309039AB2BDF8123062F315
:105360008F13ADF812300E4B1A680D4B9B6813402B
:1053700002339B000A4A134404330693049A069BA3
:105380001A60074B1A68089B1344054A13600020F3
:1053900000F0E7FB9DF81F3018460BB05DF804FBEA
:1053A0002C090020480D002000B58BB00590049119
:1053B000039202931F4B9B68079306AB0122194689
:1053C0000298FFF75FFF0346002B24D0069B0233B1
:1053D00009930023089311E0089B9B00039A1A4449
:1053E000099B591C099107990B4012681149023316
:1053F0009B000B445A60089B01330893089A029B58
:105400009A42E9D3069A079B00931346029A04999D
:105410000598FFF7E9FE074B93F82034002B05D0E1
:1054200000BF00F065F80346002BFAD100BF0BB0B7
:105430005DF804FB2C09002000B583B001900091B9
:105440000023002200990198FFF7AEFF00BF03B0D0
:105450005DF804FB00B587B0039002910192019BB7
:10546000059305AA012302990398FFF79DFF00BF4A
:1054700007B05DF804FB00B587B00390029101927C
:105480000093019B0493009B059304AA02230299B5
:105490000398FFF789FF00BF07B05DF804FB00B574
:1054A0008BB00390029101920093019B0593009BA6
:1054B00006930C9B07930D9B08930E9B099305AADB
:1054C000052302990398FFF76FFF00BF0BB05DF84B
:1054D00004FB0000054B5A68044B1B689A420CBF42
:1054E00001230023DBB21846704700BF2C090020BF
:1054F00000B599B0FFF7EEFF0346002B01D0002363
:10550000B7E19B4B0022C3F81824BFF34F8F00BFB5
:10551000974B5B680493964B9B681093049A109B7F
:10552000134002339B00924A134404331193002327
:1055300017930023169300230F9304AB1946119879
:10554000FFF785FD0346002B19D0894BD3F818349B
:10555000002B14D1864B1A68049B9A4205D8844BC1
:105560001B68834A5360002383E1049A109B134015
:1055700002339B007E4A134404331193DDE700237A
:10558000159311E0049B5A1C0492109A1340159A2B
:10559000920001A90A44764902339B000B445B68E0
:1055A0001360159B01331593159B012BEAD99DF8C8
:1055B000043003F00303DBB2022B40F09C80BDF803
:1055C0000630C3F389139BB20D93BDF80630C3F3C5
:1055D00089139BB2502B28BF50239BB20C930C9B7A
:1055E000C3F309039AB2BDF8063062F38F13ADF826
:1055F00006300C9B08330B939DF80430C3F3C203B1
:10560000DBB20F930B995B4800F0B6FA1790179B2B
:10561000002B00F0D180179800F03FFB01A9169BEA
:105620000822179800F0E3FB169B08331693049B9F
:10563000DA43109B134001339B000A930C9A0A9B98
:105640009A4242D90A9B002B08D0049A109B13401F
:1056500002339B00464A1344043300E0464B089350
:105660000A9B002B02D00A9BDBB201E00C9BDBB251
:105670008DF81F300A9B002B01D03F4B00E0002328
:1056800006930A9B002B06D00C9BDAB20A9BDBB276
:10569000D31ADBB200E000238DF817309DF81F20ED
:1056A000169B0899179800F0A2FB9DF81F30169AD8
:1056B00013441693069B002B16D09DF81720169BBB
:1056C0000699179800F093FB0EE0049A109B134084
:1056D00002339B00264A134404330993169B0C9A09
:1056E0000999179800F083FB0D9B03339A08049BDC
:1056F0001344049360E09DF8043003F00303DBB22D
:10570000012B59D1BDF80430C3F38313DBB2062B50
:1057100028BF0623DAB2BDF8043062F38913ADF86E
:105720000430BDF80430C3F38313DBB202330E93AD
:105730009DF80430C3F3C203DBB20F930E9B9B00B2
:1057400019460C4800F018FA1790179B002B33D01D
:10575000179800F0A2FA01A9169B0822179800F0EA
:1057600046FB169B08331693002315931BE000BFDE
:105770002C090020700E002038090020049B5A1CC0
:105780000492109A134002339B003C4A1344191DA3
:10579000169B0422179800F02AFB169B04331693DD
:1057A000159B01331593BDF80430C3F38313DBB2AB
:1057B0001A46159B9342E1D3179B002B39D02F4BF0
:1057C000D3F8103414932D4BD3F81834002B1BD07E
:1057D000179800F071FA46E000238DF84F301498C6
:1057E000FFF72DFC0346002B02D001238DF84F302C
:1057F0009DF84F30002B03D017991498FFF7F0FB5A
:10580000149BDB681B681493149B002BE4D117983E
:1058100000F052FA002000F09BF9184BD3F818342E
:10582000002B02D1049B154A5360002000F099F927
:1058300019E0124BD3F81034129306E01298FFF7D8
:10584000E9FB129BDB681B681293129B002BF5D1BE
:105850000B4A0C4BD31ADB081B0443F002030A4922
:105860001846FFF7E9FDFFF735FE034683F0010315
:10587000DBB2184619B05DF804FB00BF2C0900200C
:1058800058A5010028A5010074A9010000B583B046
:105890000D4BD3F8103401930B4B012283F82024D5
:1058A00009E00198FFF7C2FB0198FFF7A7FB019BF6
:1058B000DB681B680193019B002BF2D100BF00BF86
:1058C00003B05DF804FB00BF2C09002000B585B0D3
:1058D0000190019800F00EF80390039B002B01D07B
:1058E000039B00E0024B184605B05DF804FB00BFC7
:1058F00088A9010086B00190164B0593164B0493BE
:105900001FE0049A059BD31ADB10DA0F13445B10D7
:10591000DB00059A13440393039B1B680293029ACE
:10592000019B9A4202D9039B04930AE0029A019BCD
:105930009A4203D2039B0833059302E0039B5B6802
:1059400004E0059A049B9A42DBD30023184606B074
:10595000704700BF5CAD010074AE010086B00390DB
:105960000291019201238DF817309DF81730214ADA
:10597000039B13601F4A029B53601E4A019B936066
:10598000039B44F20102934213D0039B44F20202B0
:10599000934221D1019B174AD360164BDB681B88C9
:1059A0001A46144B9A61134BDB685B68114AD3614A
:1059B00012E0019B0F4A13610E4B1B699B680D4A55
:1059C00053610C4B1B691B680A4A9361094B1B69A5
:1059D0005B68084AD36100BF72B600BF00BF9DF884
:1059E0001730DBB2002BFAD162B600BF00BF06B0A1
:1059F000704700BF500D002010B487B00190009197
:105A0000019B009A53E8004F104643E8000191F0D3
:105A1000000FF7D1059404900391059B184607B039
:105A20005DF8044B704710B487B001900091019B62
:105A3000009A53E8004F44EA020043E8000191F065
:105A4000000FF6D1059404900391049B184607B00B
:105A50005DF8044B704710B487B001900091019B32
:105A6000009A53E8004F04EA020043E8000191F075
:105A7000000FF6D1059404900391059B184607B0DA
:105A80005DF8044B704710B487B001900091019B02
:105A9000009A53E8004F04EB020043E8000191F044
:105AA000000FF6D1059404900391049B184607B0AB
:105AB0005DF8044B704710B487B001900091019BD2
:105AC000009A53E8004FA4EB020043E8000191F074
:105AD000000FF6D1059404900391049B184607B07B
:105AE0005DF8044B704700B583B001900121019827
:105AF000FFF799FF0346184603B05DF804FB00B5B5
:105B000083B0019000210198FFF7A5FF03461846D6
:105B100003B05DF804FB000072B600BF034B1B68C6
:105B20000133024A136000BF704700BF700D0020B0
:105B3000064B1B68013B054A1360044B1B68002B96
:105B400001D162B600BF00BF704700BF700D0020DA
:105B500000B583B00190FFF7DFFF00BF03B05DF831
:105B600004FB00B583B003468DF80730FFF7E0FF74
:105B700000BF03B05DF804FB00B58BB0019000914D
:105B8000019B1B8A043B0793009A079B1344DA1C72
:105B9000079BB2FBF3F38DF81B30019800F05BF923
:105BA0000590059B002B01D1002338E0059B0022C6
:105BB0001A71059B01225A71079B9AB2059BDA80E4
:105BC000059B09939DF81B30013B0493099B019AA7
:105BD0001A60002308931DE0019800F03CF903903F
:105BE000039B002B0ED0059B5B790133DAB2059B3A
:105BF0005A71099B039A1A60039B019A1A60039BCE
:105C0000099304E0059800F00EF8002307E0089BD4
:105C100001330893089A049B9A42DDD3059B1846EA
:105C20000BB05DF804FB00B58BB00190019B0793AE
:105C3000079B5B798DF81B30019B08939DF81B3007
:105C4000013B05930023099305E0089B1B6808931B
:105C5000099B01330993099A059B9A42F5D3089B46
:105C60001B680493019B0893002309930BE0089B96
:105C70001B6803930899049800F024F9039B089388
:105C8000099B013309939DF81B30099A9A42EED380
:105C900000BF00BF0BB05DF804FB00B585B00190FC
:105CA000019B0393039B043301211846FFF7EBFE8E
:105CB00000BF05B05DF804FB00B587B00190019B03
:105CC0000593059B043301211846FFF7F4FE0346B4
:105CD000039303AB0493049B1B78002B02D1019820
:105CE000FFF7A1FF00BF07B05DF804FB00B591B05E
:105CF0000390029101920093039B0993039B0F93DE
:105D0000099BDB881A46099B5B7902FB03F3043B82
:105D10000893099BDB880793009B1A1D079BB2FB26
:105D2000F3F30E93009B0433079AB3FBF2F2079947
:105D300001FB02F29B1A0D93019B1A68009B13440E
:105D4000089A9A4203D2089A009BD31A01E0019B59
:105D50001B680C93019B0C9A1A6005E00F9B1B6853
:105D60000F930E9B013B0E930E9B002BF6D100234D
:105D70000B93079A0D9BD31A0A930A9A0C9B934292
:105D800028BF13460A932AE0029A0B9B13440693FA
:105D90000F9A0D9B1344043305939DF84830002B54
:105DA00005D00A9A0599069803F046FA04E00A9A83
:105DB0000699059803F040FA00230D930F9B1B688A
:105DC0000F930C9A0A9BD31A0C930B9A0A9B1344B9
:105DD0000B93079A0C9B934228BF13460A930C9B84
:105DE000002BD1D100BF00BF11B05DF804FB00B59E
:105DF00089B00590049103920293039B079307AA2D
:105E000000230093029B04990598FFF76FFF00BFE2
:105E100009B05DF804FB82B001900B468DF80330A9
:105E2000019BDA689DF803300199098A01FB03F3AD
:105E30001344184602B0704782B001900091009B55
:105E4000019AD2689B1A019A128AB3FBF2F3DBB271
:105E5000184602B0704700B585B001900023039347
:105E60000020FFF775FE019B1B681A68019B5B68A9
:105E70009A421FD9019B1B681A68013A1A601B6875
:105E80001B7819460198FFF7C6FF0390019B9A689B
:105E9000019B1B681B68D31A8DF80B30019B1B6894
:105EA0001B799DF80B209A4204D9019B1B689DF831
:105EB0000B201A710020FFF754FE039B184605B013
:105EC0005DF804FB10B584B001900091009B039332
:105ED0000020FFF73DFE019B1B681C68621C1A60D6
:105EE00003990198FFF7A8FF034623700020FFF7EE
:105EF00038FE00BF04B010BDBFF34F8F00BF074B8B
:105F0000DB6803F4E0620549054B1343CB60BFF344
:105F10004F8F00BF00BF00BFFCE700BF00ED00E0F7
:105F20000400FA05024B034A1A6000BF704700BF25
:105F3000480000200090D00308B500F027F9034680
:105F4000002B0ED04FF080430022C3F80C214FF0FD
:105F500080430022C3F810214FF080430022C3F891
:105F6000382500F037F90346002B76D04FF08053E8
:105F70007D4AD3F80434C2F820354FF080537A4A72
:105F8000D3F80834C2F824354FF08053764AD3F85A
:105F90000C34C2F828354FF08053734AD3F81034CC
:105FA000C2F82C354FF080536F4AD3F81434C2F83E
:105FB00030354FF080536C4AD3F81834C2F834357A
:105FC0004FF08053684AD3F81C34C2F840354FF084
:105FD0008053654AD3F82034C2F844354FF08053DB
:105FE000614AD3F82434C2F848354FF080535E4AF2
:105FF000D3F82834C2F84C354FF080535A4AD3F8BE
:106000002C34C2F850354FF08053574AD3F830340F
:10601000C2F854354FF08053534AD3F83434C2F8A1
:1060200060354FF08053504AD3F83834C2F86435A5
:106030004FF080534C4AD3F83C34C2F868354FF0E7
:106040008053494AD3F84034C2F86C354FF080533E
:10605000454AD3F84434C2F8703500F0DFF80346FF
:10606000002B02D0414B424A1A6000F0E9F8034687
:10607000002B03D03F4BFB22C3F8182500F0F2F8A9
:106080000346002B0AD03C4B1B6823F00F023B4B0E
:106090001B6803F00F03384913430B6000F0F4F85A
:1060A0000346002B03D0364B4FF400721A6000F009
:1060B000FDF80346002B0DD04FF08043D3F8003499
:1060C00003F00103002B05D04FF080436FF0010275
:1060D000C3F800242B4BD3F888302A4A43F47003CA
:1060E000C2F88830BFF34F8F00BFBFF36F8F00BF80
:1060F0004FF01023D3F80032002B05DB4FF01023B4
:10610000D3F80432002B2BDA1F4B0122C3F80425ED
:1061100000BF1D4BD3F80034002BFAD04FF01023F2
:106120001222C3F8002200BF174BD3F80034002B13
:10613000FAD04FF010231222C3F8042200BF124BF2
:10614000D3F80034002BFAD00F4B0022C3F80425FB
:1061500000BF0D4BD3F80034002BFAD0FFF7CCFE74
:10616000FFF7E0FE00BF08BD00C000408C560040B5
:106170004881030000F00040E40E00405802001087
:106180004096024000ED00E000E001400F4B1B682C
:10619000082B17D10E4B1B68002B01D1012312E0F5
:1061A0000B4B1B68012B01D101230CE0084B1B6832
:1061B000022B01D1012306E0054B1B68032B01D103
:1061C000012300E001231846704700BF3001001092
:1061D000340100100F4B1B68082B17D10E4B1B68A6
:1061E000002B01D1012312E00B4B1B68012B01D1C5
:1061F00001230CE0084B1B68022B01D1012306E0B0
:10620000054B1B68032B01D1012300E00123184635
:10621000704700BF3001001034010010064B1B68AE
:10622000082B05D1054B1B68002B01D1012300E091
:1062300000231846704700BF3001001034010010E1
:10624000064B1B68082B05D1054B1B68002B01D1A1
:10625000012300E000231846704700BF3001001002
:1062600034010010064B1B68082B05D1054B1B6839
:10627000002B01D1012300E000231846704700BF26
:106280003001001034010010064B1B68082B05D1AB
:10629000054B1B68002B01D1012300E000231846A9
:1062A000704700BF30010010340100100F4B1B6815
:1062B000082B17D10E4B1B68002B01D1012312E0D4
:1062C0000B4B1B68012B01D101230CE0084B1B6811
:1062D000022B01D1012306E0054B1B68032B01D1E2
:1062E000012300E001231846704700BF3001001071
:1062F0003401001082B00190019B1B681F2B02D853
:106300004FF0A04306E0019B1B6803F01F02019BB6
:106310001A60024B184602B0704700BF00030050DD
:1063200000B585B00190084611461A4603468DF81F
:1063300003300B468DF8023013468DF8013001AB67
:106340001846FFF7D7FF03909DF803209DF8023011
:106350005B001A439DF801309B001A439DF81830EA
:106360001B0242EA03019DF81C301B04019A1943E9
:10637000039B02F5E07243F8221000BF05B05DF800
:1063800004FB00B585B00390002301930023009324
:106390000023012201210398FFF7C2FF00BF05B0CF
:1063A0005DF804FB00B585B003900B468DF80B300B
:1063B0009DF80B3000220192002200920022002161
:1063C0000398FFF7ADFF00BF05B05DF804FB00B513
:1063D00085B0019001AB1846FFF78CFF0390019B3D
:1063E000012202FA03F31946039800F02AF800BFCD
:1063F00005B05DF804FB00B585B0019001AB18460F
:10640000FFF778FF0390019B012202FA03F319467C
:10641000039800F020F800BF05B05DF804FB00B55C
:1064200083B001900091009B002B03D10198FFF7EE
:10643000E2FF02E00198FFF7CAFF00BF03B05DF87A
:1064400004FB82B001900091019B009AC3F80825DB
:1064500000BF02B0704782B001900091019B009A8A
:10646000C3F80C2500BF02B07047000000B583B030
:106470000190064A019B13441B7801211846FFF73F
:10648000CEFF00BF03B05DF804FB00BF74AE010097
:1064900000B583B00023019305E00198FFF7E6FF04
:1064A000019B01330193019B032BF6D900BF00BF71
:1064B00003B05DF804FB000000B583B00023019336
:1064C00009E0094A019B13441B781846FFF759FF5E
:1064D000019B01330193019B032BF2D9FFF7D8FFF6
:1064E00000BF03B05DF804FB74AE010000B583B0DB
:1064F000002301930AE0094A019B13441B780321FE
:106500001846FFF74FFF019B01330193019B032BBB
:10651000F1D900BF00BF03B05DF804FB78AE010005
:1065200000B583B00190019B03F00103002B01D063
:10653000FFF7C2FF019B03F00203002B01D0FFF71E
:10654000D5FF00BF03B05DF804FB000000B589B0C3
:1065500001900091009B0793019B1B788DF80830F8
:10656000019B5B680393019B9B68DBB28DF8103045
:10657000019BDB680593019B1B69DBB28DF818302A
:10658000074A079B52F823300649079A51F8221010
:1065900002AA1046984700BF09B05DF804FB00BF8F
:1065A000740D0020840D002010B58AB00390029174
:1065B00001920093039B1B7809932249099B019A3E
:1065C00041F823202049099B009A41F82320002309
:1065D00008931E4B04AC0FCB84E80F00029B1B7882
:1065E0008DF81030029B5B788DF81130029B9B7800
:1065F0008DF81230029BDB788DF81330029B1B79EB
:106600008DF81530029B5B798DF81630029B9B68E4
:106610000693029B1B7B8DF81C30029B5B7B8DF8E5
:106620001D30039B181D019B002B01D0084A00E080
:106630000022099B04A900F00FFB0890089B184654
:106640000AB010BD740D0020840D00207CAE010046
:106650004D65010008B5024B1B68984700BF08BD97
:10666000940D002082B00190019B044A934201D115
:10667000034B00E00023184602B0704700200040A2
:10668000940D002000B587B0019000910198FFF7AC
:10669000E9FF0390039B002B1ED000238DF81730D9
:1066A0000020FFF755FA039B1B79002B03D0012331
:1066B0008DF8173005E0039B009A1A60039B0122B6
:1066C0001A710020FFF74DFA9DF81730002B03D008
:1066D00011230493049B02E000230493049B1846B7
:1066E00007B05DF804FB00B585B001900198FFF795
:1066F000B9FF0390039B002B05D0039B00221A6077
:10670000039B00221A7100BF05B05DF804FB000076
:1067100082B003468DF807309DF8073003F01F0262
:1067200005499DF907305B09012000FA02F241F8A2
:10673000232000BF02B0704700E100E082B00346B2
:106740008DF807309DF8073003F01F0206499DF9C8
:1067500007305B09012000FA02F2203341F82320C0
:1067600000BF02B0704700BF00E100E082B0034606
:1067700000918DF807309DF90730002B0CDA009B53
:10678000DAB20C499DF8073003F00F03043B5201C5
:10679000D2B20B441A7609E0009BDAB206499DF9A1
:1067A00007305201D2B20B4483F8002300BF02B07D
:1067B000704700BF00ED00E000E100E082B0019012
:1067C000019B03F06043B3F1005F0CBF0123002382
:1067D000DBB2184602B0704782B00190019B1B0BE0
:1067E0005BB2184602B0704700B583B003460A4654
:1067F0008DF8073013468DF806309DF806209DF978
:10680000073011461846FFF7B1FF00BF03B05DF82F
:1068100004FB00B583B003468DF807309DF90730BF
:106820001846FFF775FF00BF03B05DF804FB00B525
:1068300083B003468DF807309DF907301846FFF7FF
:106840007DFF00BF03B05DF804FB82B001900B46F2
:106850008DF803309DF80330019A134401221A6029
:1068600000BF02B0704784B001900B46ADF8023013
:10687000BDF80230019A134400221A60BDF80230BC
:10688000019A13441B680393039B00BF04B0704735
:1068900082B001900B46ADF80230BDF80230019A8B
:1068A00013441B68002B14BF01230023DBB21846DE
:1068B00002B0704782B001900091019B009AC3F82A
:1068C000042300BF02B0704782B001900091019B89
:1068D000009AC3F8082300BF02B0704782B001904D
:1068E000019B0722C3F8002500BF02B0704782B0A9
:1068F0000190019B0022C3F8002500BF02B0704741
:1069000084B00390029101920093039B029AC3F812
:106910000825039B019AC3F80C25039B009AC3F832
:10692000102500BF04B0704782B001900091009A1A
:10693000019BC3F8242500BF02B0704784B00390C8
:1069400002910192029A039BC3F84425039B019A8A
:10695000C3F8482500BF04B0704784B0039002918B
:106960000192029A039BC3F83425039B019AC3F852
:10697000382500BF04B0704784B001900B468DF8F5
:10698000033013468DF802309DF80230002B14BFFF
:1069900001230023DBB203939DF80330032B10D0B7
:1069A000032B13DC012B02D0022B05D00EE0039B3E
:1069B00043F0020303930AE0039B43F004030393B1
:1069C00005E0039B43F00603039300E000BF019B37
:1069D000039AC3F8542500BF04B0704782B00190F9
:1069E0000B468DF803309DF80320019BC3F8C025AA
:1069F00000BF02B0704782B00190019B0122C3F832
:106A0000502500BF02B0704782B00190019B002268
:106A1000C3F8502500BF02B0704782B00190019BBF
:106A20000122C3F8402500BF02B0704782B0019038
:106A3000019B0022C3F8402500BF02B07047000050
:106A400082B00190019B1B681F2B02D84FF0A0431E
:106A500006E0019B1B6803F01F02019B1A60024BBA
:106A6000184602B0704700BF0003005000B585B063
:106A70000190084611461A4603468DF803300B462E
:106A80008DF8023013468DF8013001AB1846FFF740
:106A9000D7FF03909DF803209DF802305B001A4356
:106AA0009DF801309B001A439DF818301B0242EA02
:106AB00003019DF81C301B04019A1943039B02F546
:106AC000E07243F8221000BF05B05DF804FB00B58A
:106AD00085B003900023019300230093002301223B
:106AE00001210398FFF7C2FF00BF05B05DF804FB6A
:106AF00000B585B003900B468DF80B309DF80B3038
:106B00000022019200220092002200210398FFF748
:106B1000ADFF00BF05B05DF804FB00B585B0039084
:106B200000230193002300930023012200210398F6
:106B3000FFF79CFF00BF05B05DF804FB00B585B012
:106B4000019001AB1846FFF77BFF0390019B0122E8
:106B500002FA03F31946039800F018F800BF05B0D5
:106B60005DF804FB00B585B0019001AB1846FFF756
:106B700067FF0390019B012202FA03F31946039871
:106B800000F00EF800BF05B05DF804FB82B0019084
:106B90000091019B009AC3F8082500BF02B070471E
:106BA00082B001900091019B009AC3F80C2500BFB0
:106BB00002B0704786B0019000911E4B1B681E4AC0
:106BC0001360009B002B31D0019B009A1344029369
:106BD000019B23F4FF5323F01F030593059B5B0BDD
:106BE0009BB2012202FA03F3049300230393059B53
:106BF000124A934203D94FF48073039312E0039A2D
:106C0000049B13430393049B5B000493059B03F5D0
:106C100000530593059A029B9A4203D2059B084AAA
:106C20009342ECD3034A039B136000E000BF06B01D
:106C3000704700BF000E0040080E0020FFFF00203C
:106C400000200120024A034B1B68136000BF7047FD
:106C5000000E0040080E002000B58DB00590049194
:106C600003920293059B1B791A461346DB001344DB
:106C70009B006A4A13440A930A9B1B7F002B03D094
:106C800008230793079BC5E0059B1B680993059B99
:106C90001A68059B1B791946614B53F82130194638
:106CA0001046FFF7EFFC0346002B03D01123079398
:106CB000079BAFE00A9B039A1A600A9B029A5A60EC
:106CC000049B1B7B012B05D8049B1B781846FFF700
:106CD00049FF04E0049B1B781846FFF72FFF049B35
:106CE0001B78184600230193002300930023002201
:106CF0000121FFF7BBFE049B5B78FF2B09D0049BAF
:106D00005B780B930B98FFF72DFF0B98FFF7DFFED7
:106D100002E04FF0FF330B93049B9B78FF2B07D0CF
:106D2000049B9B78089301210898FFF7E1FE02E09D
:106D30004FF0FF330893049B9A780A9B83F8202036
:106D4000049BDA780A9BDA77049BDB78FF2B17D059
:106D5000049B1B79002B05D0049BDB781846FFF7BA
:106D600001FF04E0049BDB781846FFF7E7FE049B75
:106D7000DB781846FFF7ABFE049B1A790A9B9A77DB
:106D8000049B1B781946089B0B9A0998FFF7B8FDDE
:106D9000049B9B6819460998FFF7C6FD049B197B65
:106DA000049B5B7B1A460998FFF7E6FD049B9B79E1
:106DB00019460998FFF712FE0A9B1B68002B03D0A7
:106DC00040210998FFF776FD0998FFF787FD0A9B98
:106DD0001B68002B15D0059B1B681846FFF7FCFCB1
:106DE00003461A46049B5B7919461046FFF7FCFCE4
:106DF000059B1B681846FFF7EFFC03461846FFF794
:106E000008FD0A9B00225A770A9B01221A77002369
:106E10000793079B18460DB05DF804FB9C0D0020FE
:106E200098AE010000B585B00190019B1B791A4610
:106E30001346DB0013449B00294A13440393039B2E
:106E40001B68002B08D0019B1B681846FFF7C4FC89
:106E500003461846FFF7EBFC019B1B680293039B5C
:106E60001B68002B1BD01F490298FFF72DFD039BC9
:106E70005B7FDBB2002B12D014210298FFF7E5FCF8
:106E800000BF4FF482710298FFF702FD034683F0C2
:106E90000103DBB2002BF4D1039B00225A77039B42
:106EA00093F82030FF2B05D0039B93F82030184631
:106EB000FFF733FE0298FFF71AFD029B0A4A93423E
:106EC00002D10A4B01221A60019B1B681846FFF78A
:106ED0000AFC039B00221A7700BF05B05DF804FB93
:106EE0009C0D00205201080000F0024004F0024016
:106EF00000B583B00190019BDB7FFF2B0ED0019B7F
:106F00009B7F002B05D0019BDB7F1846FFF72AFEF5
:106F100004E0019BDB7F1846FFF710FE019B002277
:106F20005A77019B00221A72019B1B68019A02F199
:106F30000800019A52681146984700BF03B05DF8F7
:106F400004FB00B583B001900B468DF803309DF82B
:106F5000033083F00103DBB2002B04D04021019801
:106F6000FFF7B2FC03E040210198FFF7A3FC00BF4C
:106F700003B05DF804FB00B583B001900091009B65
:106F800003F00103002B03D00198FFF734FD02E06A
:106F90000198FFF739FD009B03F00203002B03D09B
:106FA0000198FFF73AFD02E00198FFF73FFD00BFAF
:106FB00003B05DF804FB000000B587B003900291B8
:106FC00001920093019B1B68002B0AD0019B1B6858
:106FD0001846FFF7F3FB034683F00103DBB2002BF7
:106FE0000ED1019B9B68002B11D0019B9B6818461A
:106FF000FFF7E4FB034683F00103DBB2002B06D06E
:10700000029B00225A7710230593059B66E0019BA3
:107010001968019B5B681A460398FFF78FFC019B78
:107020009968019BDB681A460398FFF796FC039B5F
:107030002C4A934207D1019B1A68019B5B68194651
:107040001046FFF7B7FD4FF48C710398FFF70BFC68
:1070500000990398FFF78FFF009B03F00803002BB4
:1070600003D110210398FFF7F0FB029B1B68002B54
:1070700025D100BF4FF48C710398FFF709FC03463C
:1070800083F00103DBB2002BF4D1039B154A93423A
:1070900001D1FFF7D7FD029BDB7FFF2B1BD0029BAB
:1070A0009B7F002B05D0029BDB7F1846FFF75AFD24
:1070B00011E0029BDB7F1846FFF740FD0BE0009BD1
:1070C00003F00403002B0CBF01230023DBB219469D
:1070D0000398FFF736FF00230593059B184607B07A
:1070E0005DF804FB00F0024010B586B003900291F9
:1070F0000192039B1B791A461346DB0013449B0045
:107100001F4A1344049300230593049B5B7FDBB267
:10711000002B03D011230593059B2EE0049B1B68D5
:10712000002B07D0019B03F01403002B02D1049B1A
:1071300001225A77049B029A03F10C0413460FCBE9
:1071400084E80F00049BDB7FFF2B0ED0049B9B7F0A
:10715000002B05D0049BDB7F1846FFF7EFFC04E013
:10716000049BDB7F1846FFF7FDFC039B1868019B1F
:10717000029A0499FFF720FF0346184606B010BD97
:107180009C0D002000B583B0019000914FF48C71EC
:107190000198FFF77DFB0346002B0DD0019B084AA9
:1071A000934201D1FFF74EFD4FF48C710198FFF728
:1071B0005AFB0098FFF79CFE00BF03B05DF804FB8C
:1071C00000F0024008B503490348FFF7DBFF00BFAA
:1071D00008BD00BF9C0D00200030004008B50349E9
:1071E0000348FFF7CFFF00BF08BD00BFC00D002060
:1071F0000030024008B503490348FFF7C3FF00BF52
:1072000008BD00BFE40D002000F0024082B003463C
:107210008DF807309DF8073003F01F0205499DF9EE
:1072200007305B09012000FA02F241F8232000BF79
:1072300002B0704700E100E082B0034600918DF893
:1072400007309DF90730002B0CDA009BDAB20C49AD
:107250009DF8073003F00F03043B5201D2B20B44F8
:107260001A7609E0009BDAB206499DF9073052010F
:10727000D2B20B4483F8002300BF02B0704700BFB6
:1072800000ED00E000E100E000B583B003460A46EF
:107290008DF8073013468DF806309DF806209DF9CD
:1072A000073011461846FFF7C7FF00BF03B05DF86F
:1072B00004FB00B583B003468DF807309DF9073015
:1072C0001846FFF7A3FF00BF03B05DF804FB00B54D
:1072D00083B00346ADF80630BDF80630184600F01E
:1072E00026F803461B68012B0CBF01230023DBB2E9
:1072F000184603B05DF804FB00B585B00346ADF851
:107300000630BDF80630184600F011F803461A465C
:1073100000231360BDF80630184600F008F8034655
:107320001B680393039B00BF05B05DF804FB82B0AC
:107330000346ADF80630BDF8063003F1804303F58F
:10734000C043184602B0704782B00190034A019BC7
:10735000C2F8043300BF02B0704700BF00600040B5
:1073600082B00190034BD3F80423019B13401846CD
:1073700002B070470060004082B00190084A019B53
:1073800003F5A27352F82330054943F00102019B33
:1073900003F5A27341F8232000BF02B0704700BF7D
:1073A0000060004084B00390029113468DF80730CE
:1073B000144A039B03F5A27352F82330114923F4B6
:1073C0004F3323F44073039A02F5A27241F822303E
:1073D0000C4A039B03F5A27352F82320029B1B0265
:1073E00003F47C519DF807301B0403F440330B4336
:1073F00004491A43039B03F5A27341F8232000BFFD
:1074000004B070470060004082B00190054A019BC3
:1074100003F5A27352F823301B0A03F03F0318460A
:1074200002B070470060004082B00190064A019BA4
:1074300003F5A27352F823301B0C03F00303DBB2F5
:10744000184602B0704700BF0060004082B0019053
:10745000019B1B681F2B02D84FF0A04306E0019B45
:107460001B6803F01F02019B1A60024B184602B012
:10747000704700BF0003005000B585B0019008467A
:1074800011461A4603468DF803300B468DF802303C
:1074900013468DF8013001AB1846FFF7D7FF039074
:1074A0009DF803209DF802305B001A439DF80130DF
:1074B0009B001A439DF818301B0242EA03019DF815
:1074C0001C301B04019A1943039B02F5E07243F838
:1074D000221000BF05B05DF804FB00B585B0039035
:1074E0000B468DF80B309DF80B30002201920022E4
:1074F0000092002200210398FFF7BEFF00BF05B0F5
:107500005DF804FB00B585B0019001AB1846FFF7AC
:107510009DFF0390019A039B02F5E07253F822301D
:1075200023F002030293019A039B02F5E072029991
:1075300043F8221000BF05B05DF804FB00B585B02C
:1075400001900B468DF8033001AB1846FFF77EFF24
:107550000390019A039B02F5E07253F82230019ADE
:1075600023F44031039B02F5E07243F82210019AA4
:10757000039B02F5E07253F822309DF803201204B9
:107580001146019A1943039B02F5E07243F8221059
:1075900000BF05B05DF804FB00B585B0019001ABFC
:1075A0001846FFF753FF0390039800F020F80246B7
:1075B000019B22FA03F303F00103184605B05DF8BE
:1075C00004FB00B585B0019001AB1846FFF73EFF04
:1075D0000390019A039B02F5E07253F822301B0CD2
:1075E00003F00303DBB2184605B05DF804FB82B07C
:1075F0000190019BD3F81035184602B07047000087
:1076000000B589B0039002910192134A05AB92E84C
:10761000030083E80300039B079311E0079B9B0093
:1076200020336B4453F80C3C1846FFF7E0FF02464A
:10763000019B1A60019B04330193079B013307935D
:10764000039A029B1344079A9A42E7D300BF00BFF4
:1076500009B05DF804FB00BFA4AE010084B0019046
:107660000091009B0393019BDB080293019B03F0B5
:10767000070301930122019B02FA03F30399029A83
:107680000A4412781340184604B0704784B0019041
:107690000091009B0393019BDB080293019B03F085
:1076A00007030193039A029B13441B785AB20121EA
:1076B000019B01FA03F35BB2134359B2039A029B95
:1076C0001344CAB21A7000BF04B0704782B0019070
:1076D0000C4A019B1344243393F90030002B09DB3F
:1076E000084A019B1344243393F90030072B01DC33
:1076F000012300E0002303F00103DBB2184602B0CF
:10770000704700BF0C0E002082B00190064A019B1A
:107710001344243393F90030072BCCBF01230023FB
:10772000DBB2184602B070470C0E002082B0019008
:10773000064A019B1344243393F90030DB43DBB248
:10774000DB09DBB2184602B0704700BF0C0E002008
:1077500084B00390029101928DF80330029B59B2DC
:107760000E4A039B134424330A461A700B49029BAA
:10777000019A41F823209DF8033083F00103DBB226
:10778000002B08D0029B083B039A51B2034A1344D2
:107790000A4683F8542000BF04B070470C0E002046
:1077A00082B00190044A019B13442433FF221A70D3
:1077B00000BF02B0704700BF0C0E002000B583B0C0
:1077C000019004490198FFF761FF00BF03B05DF825
:1077D00004FB00BF610E002082B00190044A019BAF
:1077E0001344243393F90030184602B0704700BFA9
:1077F0000C0E002082B00190034A019B52F8233006
:10780000184602B0704700BF0C0E002000B589B0CA
:107810000390029113468DF80730FF238DF81F3037
:107820009DF80730002B01D0002300E008230593CA
:107830009DF80730002B01D0082300E009230493B2
:10784000059B069314E00F4A069B52F82330B3F1D0
:10785000FF3F0AD19DF80730029A06990398FFF777
:1078600077FF069B8DF81F3006E0069B01330693D9
:10787000069A049B9A42E6D39DF91F30184609B038
:107880005DF804FB0C0E002082B003468DF8073033
:107890009DF80730094A4FF0FF3142F823109DF858
:1078A0000730072B07D99DF80730083B034A1344DC
:1078B000FF2283F8542000BF02B070470C0E002056
:1078C00000B583B0254B93F85B30002B03D0082321
:1078D0000193019B3EE000238DF8033009E09DF801
